{
  "_format": "hh-sol-artifact-1",
  "contractName": "DocumentRegistry",
  "sourceName": "contracts/DocumentRegistry.sol",
  "abi": [
    {
      "anonymous": false,
      "inputs": [
        {
          "indexed": true,
          "internalType": "bytes32",
          "name": "docHash",
          "type": "bytes32"
        },
        {
          "indexed": true,
          "internalType": "address",
          "name": "issuer",
          "type": "address"
        },
        {
          "indexed": false,
          "internalType": "uint256",
          "name": "timestamp",
          "type": "uint256"
        }
      ],
      "name": "DocumentAnchored",
      "type": "event"
    },
    {
      "anonymous": false,
      "inputs": [
        {
          "indexed": true,
          "internalType": "bytes32",
          "name": "docHash",
          "type": "bytes32"
        },
        {
          "indexed": false,
          "internalType": "string",
          "name": "reason",
          "type": "string"
        },
        {
          "indexed": true,
          "internalType": "address",
          "name": "by",
          "type": "address"
        }
      ],
      "name": "DocumentRevoked",
      "type": "event"
    },
    {
      "inputs": [
        {
          "internalType": "bytes32",
          "name": "_docHash",
          "type": "bytes32"
        }
      ],
      "name": "anchorDocument",
      "outputs": [],
      "stateMutability": "nonpayable",
      "type": "function"
    },
    {
      "inputs": [
        {
          "internalType": "bytes32",
          "name": "",
          "type": "bytes32"
        }
      ],
      "name": "docExists",
      "outputs": [
        {
          "internalType": "bool",
          "name": "",
          "type": "bool"
        }
      ],
      "stateMutability": "view",
      "type": "function"
    },
    {
      "inputs": [
        {
          "internalType": "bytes32",
          "name": "",
          "type": "bytes32"
        }
      ],
      "name": "documents",
      "outputs": [
        {
          "internalType": "bytes32",
          "name": "docHash",
          "type": "bytes32"
        },
        {
          "internalType": "address",
          "name": "issuer",
          "type": "address"
        },
        {
          "internalType": "uint256",
          "name": "timestamp",
          "type": "uint256"
        },
        {
          "internalType": "uint256",
          "name": "blockNumber",
          "type": "uint256"
        },
        {
          "internalType": "enum DocumentRegistry.DocumentStatus",
          "name": "status",
          "type": "uint8"
        },
        {
          "internalType": "string",
          "name": "revocationReason",
          "type": "string"
        }
      ],
      "stateMutability": "view",
      "type": "function"
    },
    {
      "inputs": [
        {
          "internalType": "bytes32",
          "name": "_docHash",
          "type": "bytes32"
        },
        {
          "internalType": "string",
          "name": "_reason",
          "type": "string"
        }
      ],
      "name": "revokeDocument",
      "outputs": [],
      "stateMutability": "nonpayable",
      "type": "function"
    },
    {
      "inputs": [
        {
          "internalType": "bytes32",
          "name": "_docHash",
          "type": "bytes32"
        }
      ],
      "name": "verifyDocument",
      "outputs": [
        {
          "internalType": "bool",
          "name": "",
          "type": "bool"
        },
        {
          "internalType": "address",
          "name": "",
          "type": "address"
        },
        {
          "internalType": "uint256",
          "name": "",
          "type": "uint256"
        },
        {
          "internalType": "enum DocumentRegistry.DocumentStatus",
          "name": "",
          "type": "uint8"
        },
        {
          "internalType": "string",
          "name": "",
          "type": "string"
        }
      ],
      "stateMutability": "view",
      "type": "function"
    }
  ],
  "bytecode": "0x6080604052348015600f57600080fd5b506112398061001f6000396000f3fe608060405234801561001057600080fd5b50600436106100575760003560e01c80632b2805db1461005c5780634ee0c0a714610091578063c173af91146100ad578063d59a6799146100dd578063fe35089f146100f9575b600080fd5b610076600480360381019061007191906108a6565b61012d565b60405161008896959493929190610a43565b60405180910390f35b6100ab60048036038101906100a69190610be0565b61021e565b005b6100c760048036038101906100c291906108a6565b610400565b6040516100d49190610c57565b60405180910390f35b6100f760048036038101906100f291906108a6565b610420565b005b610113600480360381019061010e91906108a6565b610668565b604051610124959493929190610c72565b60405180910390f35b60006020528060005260406000206000915090508060000154908060010160009054906101000a900473ffffffffffffffffffffffffffffffffffffffff16908060020154908060030154908060040160009054906101000a900460ff169080600501805461019b90610cfb565b80601f01602080910402602001604051908101604052809291908181526020018280546101c790610cfb565b80156102145780601f106101e957610100808354040283529160200191610214565b820191906000526020600020905b8154815290600101906020018083116101f757829003601f168201915b5050505050905086565b813373ffffffffffffffffffffffffffffffffffffffff1660008083815260200190815260200160002060010160009054906101000a900473ffffffffffffffffffffffffffffffffffffffff1673ffffffffffffffffffffffffffffffffffffffff16146102c2576040517f08c379a00000000000000000000000000000000000000000000000000000000081526004016102b990610d78565b60405180910390fd5b600060018111156102d6576102d561093c565b5b60008085815260200190815260200160002060040160009054906101000a900460ff16600181111561030b5761030a61093c565b5b1461034b576040517f08c379a000000000000000000000000000000000000000000000000000000000815260040161034290610de4565b60405180910390fd5b600160008085815260200190815260200160002060040160006101000a81548160ff021916908360018111156103845761038361093c565b5b02179055508160008085815260200190815260200160002060050190816103ab9190610fb0565b503373ffffffffffffffffffffffffffffffffffffffff16837fc796f65c7935a1fcb03fe397598cd0a7f30127b8a258a1a2baa96cc43c6e4dca846040516103f39190611082565b60405180910390a3505050565b60016020528060005260406000206000915054906101000a900460ff1681565b6001600082815260200190815260200160002060009054906101000a900460ff1615610481576040517f08c379a0000000000000000000000000000000000000000000000000000000008152600401610478906110f0565b60405180910390fd5b6000801b81036104c6576040517f08c379a00000000000000000000000000000000000000000000000000000000081526004016104bd9061115c565b60405180910390fd5b6040518060c001604052808281526020013373ffffffffffffffffffffffffffffffffffffffff168152602001428152602001438152602001600060018111156105135761051261093c565b5b8152602001604051806020016040528060008152508152506000808381526020019081526020016000206000820151816000015560208201518160010160006101000a81548173ffffffffffffffffffffffffffffffffffffffff021916908373ffffffffffffffffffffffffffffffffffffffff160217905550604082015181600201556060820151816003015560808201518160040160006101000a81548160ff021916908360018111156105cd576105cc61093c565b5b021790555060a08201518160050190816105e79190610fb0565b50905050600180600083815260200190815260200160002060006101000a81548160ff0219169083151502179055503373ffffffffffffffffffffffffffffffffffffffff16817f30fcec615a5b34f4b3bb2d830687f8e4f4d3ec06a748a5c3baea47d524cb7f834260405161065d919061117c565b60405180910390a350565b60008060008060606001600087815260200190815260200160002060009054906101000a900460ff166106d0576040517f08c379a00000000000000000000000000000000000000000000000000000000081526004016106c7906111e3565b60405180910390fd5b60008060008881526020019081526020016000206040518060c0016040529081600082015481526020016001820160009054906101000a900473ffffffffffffffffffffffffffffffffffffffff1673ffffffffffffffffffffffffffffffffffffffff1673ffffffffffffffffffffffffffffffffffffffff16815260200160028201548152602001600382015481526020016004820160009054906101000a900460ff1660018111156107885761078761093c565b5b600181111561079a5761079961093c565b5b81526020016005820180546107ae90610cfb565b80601f01602080910402602001604051908101604052809291908181526020018280546107da90610cfb565b80156108275780601f106107fc57610100808354040283529160200191610827565b820191906000526020600020905b81548152906001019060200180831161080a57829003601f168201915b505050505081525050905060018160200151826040015183608001518460a00151955095509550955095505091939590929450565b6000604051905090565b600080fd5b600080fd5b6000819050919050565b61088381610870565b811461088e57600080fd5b50565b6000813590506108a08161087a565b92915050565b6000602082840312156108bc576108bb610866565b5b60006108ca84828501610891565b91505092915050565b6108dc81610870565b82525050565b600073ffffffffffffffffffffffffffffffffffffffff82169050919050565b600061090d826108e2565b9050919050565b61091d81610902565b82525050565b6000819050919050565b61093681610923565b82525050565b7f4e487b7100000000000000000000000000000000000000000000000000000000600052602160045260246000fd5b6002811061097c5761097b61093c565b5b50565b600081905061098d8261096b565b919050565b600061099d8261097f565b9050919050565b6109ad81610992565b82525050565b600081519050919050565b600082825260208201905092915050565b60005b838110156109ed5780820151818401526020810190506109d2565b60008484015250505050565b6000601f19601f8301169050919050565b6000610a15826109b3565b610a1f81856109be565b9350610a2f8185602086016109cf565b610a38816109f9565b840191505092915050565b600060c082019050610a5860008301896108d3565b610a656020830188610914565b610a72604083018761092d565b610a7f606083018661092d565b610a8c60808301856109a4565b81810360a0830152610a9e8184610a0a565b9050979650505050505050565b600080fd5b600080fd5b7f4e487b7100000000000000000000000000000000000000000000000000000000600052604160045260246000fd5b610aed826109f9565b810181811067ffffffffffffffff82111715610b0c57610b0b610ab5565b5b80604052505050565b6000610b1f61085c565b9050610b2b8282610ae4565b919050565b600067ffffffffffffffff821115610b4b57610b4a610ab5565b5b610b54826109f9565b9050602081019050919050565b82818337600083830152505050565b6000610b83610b7e84610b30565b610b15565b905082815260208101848484011115610b9f57610b9e610ab0565b5b610baa848285610b61565b509392505050565b600082601f830112610bc757610bc6610aab565b5b8135610bd7848260208601610b70565b91505092915050565b60008060408385031215610bf757610bf6610866565b5b6000610c0585828601610891565b925050602083013567ffffffffffffffff811115610c2657610c2561086b565b5b610c3285828601610bb2565b9150509250929050565b60008115159050919050565b610c5181610c3c565b82525050565b6000602082019050610c6c6000830184610c48565b92915050565b600060a082019050610c876000830188610c48565b610c946020830187610914565b610ca1604083018661092d565b610cae60608301856109a4565b8181036080830152610cc08184610a0a565b90509695505050505050565b7f4e487b7100000000000000000000000000000000000000000000000000000000600052602260045260246000fd5b60006002820490506001821680610d1357607f821691505b602082108103610d2657610d25610ccc565b5b50919050565b7f4f6e6c79206973737565722063616e207265766f6b6500000000000000000000600082015250565b6000610d626016836109be565b9150610d6d82610d2c565b602082019050919050565b60006020820190508181036000830152610d9181610d55565b9050919050565b7f446f63756d656e7420616c7265616479207265766f6b65640000000000000000600082015250565b6000610dce6018836109be565b9150610dd982610d98565b602082019050919050565b60006020820190508181036000830152610dfd81610dc1565b9050919050565b60008190508160005260206000209050919050565b60006020601f8301049050919050565b600082821b905092915050565b600060088302610e667fffffffffffffffffffffffffffffffffffffffffffffffffffffffffffffffff82610e29565b610e708683610e29565b95508019841693508086168417925050509392505050565b6000819050919050565b6000610ead610ea8610ea384610923565b610e88565b610923565b9050919050565b6000819050919050565b610ec783610e92565b610edb610ed382610eb4565b848454610e36565b825550505050565b600090565b610ef0610ee3565b610efb818484610ebe565b505050565b5b81811015610f1f57610f14600082610ee8565b600181019050610f01565b5050565b601f821115610f6457610f3581610e04565b610f3e84610e19565b81016020851015610f4d578190505b610f61610f5985610e19565b830182610f00565b50505b505050565b600082821c905092915050565b6000610f8760001984600802610f69565b1980831691505092915050565b6000610fa08383610f76565b9150826002028217905092915050565b610fb9826109b3565b67ffffffffffffffff811115610fd257610fd1610ab5565b5b610fdc8254610cfb565b610fe7828285610f23565b600060209050601f83116001811461101a5760008415611008578287015190505b6110128582610f94565b86555061107a565b601f19841661102886610e04565b60005b828110156110505784890151825560018201915060208501945060208101905061102b565b8683101561106d5784890151611069601f891682610f76565b8355505b6001600288020188555050505b505050505050565b6000602082019050818103600083015261109c8184610a0a565b905092915050565b7f446f63756d656e7420616c726561647920616e63686f72656400000000000000600082015250565b60006110da6019836109be565b91506110e5826110a4565b602082019050919050565b60006020820190508181036000830152611109816110cd565b9050919050565b7f496e76616c696420686173680000000000000000000000000000000000000000600082015250565b6000611146600c836109be565b915061115182611110565b602082019050919050565b6000602082019050818103600083015261117581611139565b9050919050565b6000602082019050611191600083018461092d565b92915050565b7f446f63756d656e74206e6f7420666f756e640000000000000000000000000000600082015250565b60006111cd6012836109be565b91506111d882611197565b602082019050919050565b600060208201905081810360008301526111fc816111c0565b905091905056fea26469706673582212203034284b8cde8bef928e427028b257779e86cfd476117446edce5a1c11c51f6764736f6c634300081c0033",
  "linkReferences": {},
  "deployedLinkReferences": {}
}